{
	"contracts/SetterGetter.sol": {
		"SetterGetter": {
			"abi": [
				{
					"inputs": [
						{
							"internalType": "address",
							"name": "_owner",
							"type": "address"
						}
					],
					"stateMutability": "nonpayable",
					"type": "constructor"
				},
				{
					"inputs": [],
					"name": "getName",
					"outputs": [
						{
							"internalType": "string",
							"name": "",
							"type": "string"
						}
					],
					"stateMutability": "view",
					"type": "function"
				},
				{
					"inputs": [
						{
							"internalType": "string",
							"name": "_name",
							"type": "string"
						}
					],
					"name": "setName",
					"outputs": [],
					"stateMutability": "nonpayable",
					"type": "function"
				}
			],
			"devdoc": {
				"kind": "dev",
				"methods": {},
				"version": 1
			},
			"evm": {
				"assembly": "    /* \"contracts/SetterGetter.sol\":57:473  contract SetterGetter {... */\n  mstore(0x40, 0x80)\n    /* \"contracts/SetterGetter.sol\":230:290  constructor (address _owner) {... */\n  callvalue\n  dup1\n  iszero\n  tag_1\n  jumpi\n  0x00\n  dup1\n  revert\ntag_1:\n  pop\n  mload(0x40)\n  sub(codesize, bytecodeSize)\n  dup1\n  bytecodeSize\n  dup4\n  codecopy\n  dup2\n  dup2\n  add\n  0x40\n  mstore\n  dup2\n  add\n  swap1\n  tag_2\n  swap2\n  swap1\n  tag_3\n  jump\t// in\ntag_2:\n    /* \"contracts/SetterGetter.sol\":277:283  _owner */\n  dup1\n    /* \"contracts/SetterGetter.sol\":269:274  owner */\n  0x01\n  0x00\n    /* \"contracts/SetterGetter.sol\":269:283  owner = _owner */\n  0x0100\n  exp\n  dup2\n  sload\n  dup2\n  0xffffffffffffffffffffffffffffffffffffffff\n  mul\n  not\n  and\n  swap1\n  dup4\n  0xffffffffffffffffffffffffffffffffffffffff\n  and\n  mul\n  or\n  swap1\n  sstore\n  pop\n    /* \"contracts/SetterGetter.sol\":230:290  constructor (address _owner) {... */\n  pop\n    /* \"contracts/SetterGetter.sol\":57:473  contract SetterGetter {... */\n  jump(tag_6)\n    /* \"#utility.yul\":88:205   */\ntag_8:\n    /* \"#utility.yul\":197:198   */\n  0x00\n    /* \"#utility.yul\":194:195   */\n  dup1\n    /* \"#utility.yul\":187:199   */\n  revert\n    /* \"#utility.yul\":334:460   */\ntag_10:\n    /* \"#utility.yul\":371:378   */\n  0x00\n    /* \"#utility.yul\":411:453   */\n  0xffffffffffffffffffffffffffffffffffffffff\n    /* \"#utility.yul\":404:409   */\n  dup3\n    /* \"#utility.yul\":400:454   */\n  and\n    /* \"#utility.yul\":389:454   */\n  swap1\n  pop\n    /* \"#utility.yul\":334:460   */\n  swap2\n  swap1\n  pop\n  jump\t// out\n    /* \"#utility.yul\":466:562   */\ntag_11:\n    /* \"#utility.yul\":503:510   */\n  0x00\n    /* \"#utility.yul\":532:556   */\n  tag_20\n    /* \"#utility.yul\":550:555   */\n  dup3\n    /* \"#utility.yul\":532:556   */\n  tag_10\n  jump\t// in\ntag_20:\n    /* \"#utility.yul\":521:556   */\n  swap1\n  pop\n    /* \"#utility.yul\":466:562   */\n  swap2\n  swap1\n  pop\n  jump\t// out\n    /* \"#utility.yul\":568:690   */\ntag_12:\n    /* \"#utility.yul\":641:665   */\n  tag_22\n    /* \"#utility.yul\":659:664   */\n  dup2\n    /* \"#utility.yul\":641:665   */\n  tag_11\n  jump\t// in\ntag_22:\n    /* \"#utility.yul\":634:639   */\n  dup2\n    /* \"#utility.yul\":631:666   */\n  eq\n    /* \"#utility.yul\":621:684   */\n  tag_23\n  jumpi\n    /* \"#utility.yul\":680:681   */\n  0x00\n    /* \"#utility.yul\":677:678   */\n  dup1\n    /* \"#utility.yul\":670:682   */\n  revert\n    /* \"#utility.yul\":621:684   */\ntag_23:\n    /* \"#utility.yul\":568:690   */\n  pop\n  jump\t// out\n    /* \"#utility.yul\":696:839   */\ntag_13:\n    /* \"#utility.yul\":753:758   */\n  0x00\n    /* \"#utility.yul\":784:790   */\n  dup2\n    /* \"#utility.yul\":778:791   */\n  mload\n    /* \"#utility.yul\":769:791   */\n  swap1\n  pop\n    /* \"#utility.yul\":800:833   */\n  tag_25\n    /* \"#utility.yul\":827:832   */\n  dup2\n    /* \"#utility.yul\":800:833   */\n  tag_12\n  jump\t// in\ntag_25:\n    /* \"#utility.yul\":696:839   */\n  swap3\n  swap2\n  pop\n  pop\n  jump\t// out\n    /* \"#utility.yul\":845:1196   */\ntag_3:\n    /* \"#utility.yul\":915:921   */\n  0x00\n    /* \"#utility.yul\":964:966   */\n  0x20\n    /* \"#utility.yul\":952:961   */\n  dup3\n    /* \"#utility.yul\":943:950   */\n  dup5\n    /* \"#utility.yul\":939:962   */\n  sub\n    /* \"#utility.yul\":935:967   */\n  slt\n    /* \"#utility.yul\":932:1051   */\n  iszero\n  tag_27\n  jumpi\n    /* \"#utility.yul\":970:1049   */\n  tag_28\n  tag_8\n  jump\t// in\ntag_28:\n    /* \"#utility.yul\":932:1051   */\ntag_27:\n    /* \"#utility.yul\":1090:1091   */\n  0x00\n    /* \"#utility.yul\":1115:1179   */\n  tag_29\n    /* \"#utility.yul\":1171:1178   */\n  dup5\n    /* \"#utility.yul\":1162:1168   */\n  dup3\n    /* \"#utility.yul\":1151:1160   */\n  dup6\n    /* \"#utility.yul\":1147:1169   */\n  add\n    /* \"#utility.yul\":1115:1179   */\n  tag_13\n  jump\t// in\ntag_29:\n    /* \"#utility.yul\":1105:1179   */\n  swap2\n  pop\n    /* \"#utility.yul\":1061:1189   */\n  pop\n    /* \"#utility.yul\":845:1196   */\n  swap3\n  swap2\n  pop\n  pop\n  jump\t// out\n    /* \"contracts/SetterGetter.sol\":57:473  contract SetterGetter {... */\ntag_6:\n  dataSize(sub_0)\n  dup1\n  dataOffset(sub_0)\n  0x00\n  codecopy\n  0x00\n  return\nstop\n\nsub_0: assembly {\n        /* \"contracts/SetterGetter.sol\":57:473  contract SetterGetter {... */\n      mstore(0x40, 0x80)\n      callvalue\n      dup1\n      iszero\n      tag_1\n      jumpi\n      0x00\n      dup1\n      revert\n    tag_1:\n      pop\n      jumpi(tag_2, lt(calldatasize, 0x04))\n      shr(0xe0, calldataload(0x00))\n      dup1\n      0x17d7de7c\n      eq\n      tag_3\n      jumpi\n      dup1\n      0xc47f0027\n      eq\n      tag_4\n      jumpi\n    tag_2:\n      0x00\n      dup1\n      revert\n        /* \"contracts/SetterGetter.sol\":387:471  function getName () view public returns (string memory) {... */\n    tag_3:\n      tag_5\n      tag_6\n      jump\t// in\n    tag_5:\n      mload(0x40)\n      tag_7\n      swap2\n      swap1\n      tag_8\n      jump\t// in\n    tag_7:\n      mload(0x40)\n      dup1\n      swap2\n      sub\n      swap1\n      return\n        /* \"contracts/SetterGetter.sol\":296:381  function setName (string memory _name) public onlyOwner {... */\n    tag_4:\n      tag_9\n      0x04\n      dup1\n      calldatasize\n      sub\n      dup2\n      add\n      swap1\n      tag_10\n      swap2\n      swap1\n      tag_11\n      jump\t// in\n    tag_10:\n      tag_12\n      jump\t// in\n    tag_9:\n      stop\n        /* \"contracts/SetterGetter.sol\":387:471  function getName () view public returns (string memory) {... */\n    tag_6:\n        /* \"contracts/SetterGetter.sol\":428:441  string memory */\n      0x60\n        /* \"contracts/SetterGetter.sol\":460:464  name */\n      0x00\n        /* \"contracts/SetterGetter.sol\":453:464  return name */\n      dup1\n      sload\n      tag_14\n      swap1\n      tag_15\n      jump\t// in\n    tag_14:\n      dup1\n      0x1f\n      add\n      0x20\n      dup1\n      swap2\n      div\n      mul\n      0x20\n      add\n      mload(0x40)\n      swap1\n      dup2\n      add\n      0x40\n      mstore\n      dup1\n      swap3\n      swap2\n      swap1\n      dup2\n      dup2\n      mstore\n      0x20\n      add\n      dup3\n      dup1\n      sload\n      tag_16\n      swap1\n      tag_15\n      jump\t// in\n    tag_16:\n      dup1\n      iszero\n      tag_17\n      jumpi\n      dup1\n      0x1f\n      lt\n      tag_18\n      jumpi\n      0x0100\n      dup1\n      dup4\n      sload\n      div\n      mul\n      dup4\n      mstore\n      swap2\n      0x20\n      add\n      swap2\n      jump(tag_17)\n    tag_18:\n      dup3\n      add\n      swap2\n      swap1\n      0x00\n      mstore\n      keccak256(0x00, 0x20)\n      swap1\n    tag_19:\n      dup2\n      sload\n      dup2\n      mstore\n      swap1\n      0x01\n      add\n      swap1\n      0x20\n      add\n      dup1\n      dup4\n      gt\n      tag_19\n      jumpi\n      dup3\n      swap1\n      sub\n      0x1f\n      and\n      dup3\n      add\n      swap2\n    tag_17:\n      pop\n      pop\n      pop\n      pop\n      pop\n      swap1\n      pop\n        /* \"contracts/SetterGetter.sol\":387:471  function getName () view public returns (string memory) {... */\n      swap1\n      jump\t// out\n        /* \"contracts/SetterGetter.sol\":296:381  function setName (string memory _name) public onlyOwner {... */\n    tag_12:\n        /* \"contracts/SetterGetter.sol\":175:180  owner */\n      0x01\n      0x00\n      swap1\n      sload\n      swap1\n      0x0100\n      exp\n      swap1\n      div\n      0xffffffffffffffffffffffffffffffffffffffff\n      and\n        /* \"contracts/SetterGetter.sol\":161:180  msg.sender == owner */\n      0xffffffffffffffffffffffffffffffffffffffff\n      and\n        /* \"contracts/SetterGetter.sol\":161:171  msg.sender */\n      caller\n        /* \"contracts/SetterGetter.sol\":161:180  msg.sender == owner */\n      0xffffffffffffffffffffffffffffffffffffffff\n      and\n      eq\n        /* \"contracts/SetterGetter.sol\":153:206  require(msg.sender == owner, \"You are not the owner\") */\n      tag_21\n      jumpi\n      mload(0x40)\n      0x08c379a000000000000000000000000000000000000000000000000000000000\n      dup2\n      mstore\n      0x04\n      add\n      tag_22\n      swap1\n      tag_23\n      jump\t// in\n    tag_22:\n      mload(0x40)\n      dup1\n      swap2\n      sub\n      swap1\n      revert\n    tag_21:\n        /* \"contracts/SetterGetter.sol\":369:374  _name */\n      dup1\n        /* \"contracts/SetterGetter.sol\":362:366  name */\n      0x00\n        /* \"contracts/SetterGetter.sol\":362:374  name = _name */\n      swap1\n      dup2\n      tag_25\n      swap2\n      swap1\n      tag_26\n      jump\t// in\n    tag_25:\n      pop\n        /* \"contracts/SetterGetter.sol\":296:381  function setName (string memory _name) public onlyOwner {... */\n      pop\n      jump\t// out\n        /* \"#utility.yul\":7:106   */\n    tag_27:\n        /* \"#utility.yul\":59:65   */\n      0x00\n        /* \"#utility.yul\":93:98   */\n      dup2\n        /* \"#utility.yul\":87:99   */\n      mload\n        /* \"#utility.yul\":77:99   */\n      swap1\n      pop\n        /* \"#utility.yul\":7:106   */\n      swap2\n      swap1\n      pop\n      jump\t// out\n        /* \"#utility.yul\":112:281   */\n    tag_28:\n        /* \"#utility.yul\":196:207   */\n      0x00\n        /* \"#utility.yul\":230:236   */\n      dup3\n        /* \"#utility.yul\":225:228   */\n      dup3\n        /* \"#utility.yul\":218:237   */\n      mstore\n        /* \"#utility.yul\":270:274   */\n      0x20\n        /* \"#utility.yul\":265:268   */\n      dup3\n        /* \"#utility.yul\":261:275   */\n      add\n        /* \"#utility.yul\":246:275   */\n      swap1\n      pop\n        /* \"#utility.yul\":112:281   */\n      swap3\n      swap2\n      pop\n      pop\n      jump\t// out\n        /* \"#utility.yul\":287:426   */\n    tag_29:\n        /* \"#utility.yul\":376:382   */\n      dup3\n        /* \"#utility.yul\":371:374   */\n      dup2\n        /* \"#utility.yul\":366:369   */\n      dup4\n        /* \"#utility.yul\":360:383   */\n      mcopy\n        /* \"#utility.yul\":417:418   */\n      0x00\n        /* \"#utility.yul\":408:414   */\n      dup4\n        /* \"#utility.yul\":403:406   */\n      dup4\n        /* \"#utility.yul\":399:415   */\n      add\n        /* \"#utility.yul\":392:419   */\n      mstore\n        /* \"#utility.yul\":287:426   */\n      pop\n      pop\n      pop\n      jump\t// out\n        /* \"#utility.yul\":432:534   */\n    tag_30:\n        /* \"#utility.yul\":473:479   */\n      0x00\n        /* \"#utility.yul\":524:526   */\n      0x1f\n        /* \"#utility.yul\":520:527   */\n      not\n        /* \"#utility.yul\":515:517   */\n      0x1f\n        /* \"#utility.yul\":508:513   */\n      dup4\n        /* \"#utility.yul\":504:518   */\n      add\n        /* \"#utility.yul\":500:528   */\n      and\n        /* \"#utility.yul\":490:528   */\n      swap1\n      pop\n        /* \"#utility.yul\":432:534   */\n      swap2\n      swap1\n      pop\n      jump\t// out\n        /* \"#utility.yul\":540:917   */\n    tag_31:\n        /* \"#utility.yul\":628:631   */\n      0x00\n        /* \"#utility.yul\":656:695   */\n      tag_69\n        /* \"#utility.yul\":689:694   */\n      dup3\n        /* \"#utility.yul\":656:695   */\n      tag_27\n      jump\t// in\n    tag_69:\n        /* \"#utility.yul\":711:782   */\n      tag_70\n        /* \"#utility.yul\":775:781   */\n      dup2\n        /* \"#utility.yul\":770:773   */\n      dup6\n        /* \"#utility.yul\":711:782   */\n      tag_28\n      jump\t// in\n    tag_70:\n        /* \"#utility.yul\":704:782   */\n      swap4\n      pop\n        /* \"#utility.yul\":791:856   */\n      tag_71\n        /* \"#utility.yul\":849:855   */\n      dup2\n        /* \"#utility.yul\":844:847   */\n      dup6\n        /* \"#utility.yul\":837:841   */\n      0x20\n        /* \"#utility.yul\":830:835   */\n      dup7\n        /* \"#utility.yul\":826:842   */\n      add\n        /* \"#utility.yul\":791:856   */\n      tag_29\n      jump\t// in\n    tag_71:\n        /* \"#utility.yul\":881:910   */\n      tag_72\n        /* \"#utility.yul\":903:909   */\n      dup2\n        /* \"#utility.yul\":881:910   */\n      tag_30\n      jump\t// in\n    tag_72:\n        /* \"#utility.yul\":876:879   */\n      dup5\n        /* \"#utility.yul\":872:911   */\n      add\n        /* \"#utility.yul\":865:911   */\n      swap2\n      pop\n        /* \"#utility.yul\":632:917   */\n      pop\n        /* \"#utility.yul\":540:917   */\n      swap3\n      swap2\n      pop\n      pop\n      jump\t// out\n        /* \"#utility.yul\":923:1236   */\n    tag_8:\n        /* \"#utility.yul\":1036:1040   */\n      0x00\n        /* \"#utility.yul\":1074:1076   */\n      0x20\n        /* \"#utility.yul\":1063:1072   */\n      dup3\n        /* \"#utility.yul\":1059:1077   */\n      add\n        /* \"#utility.yul\":1051:1077   */\n      swap1\n      pop\n        /* \"#utility.yul\":1123:1132   */\n      dup2\n        /* \"#utility.yul\":1117:1121   */\n      dup2\n        /* \"#utility.yul\":1113:1133   */\n      sub\n        /* \"#utility.yul\":1109:1110   */\n      0x00\n        /* \"#utility.yul\":1098:1107   */\n      dup4\n        /* \"#utility.yul\":1094:1111   */\n      add\n        /* \"#utility.yul\":1087:1134   */\n      mstore\n        /* \"#utility.yul\":1151:1229   */\n      tag_74\n        /* \"#utility.yul\":1224:1228   */\n      dup2\n        /* \"#utility.yul\":1215:1221   */\n      dup5\n        /* \"#utility.yul\":1151:1229   */\n      tag_31\n      jump\t// in\n    tag_74:\n        /* \"#utility.yul\":1143:1229   */\n      swap1\n      pop\n        /* \"#utility.yul\":923:1236   */\n      swap3\n      swap2\n      pop\n      pop\n      jump\t// out\n        /* \"#utility.yul\":1242:1317   */\n    tag_32:\n        /* \"#utility.yul\":1275:1281   */\n      0x00\n        /* \"#utility.yul\":1308:1310   */\n      0x40\n        /* \"#utility.yul\":1302:1311   */\n      mload\n        /* \"#utility.yul\":1292:1311   */\n      swap1\n      pop\n        /* \"#utility.yul\":1242:1317   */\n      swap1\n      jump\t// out\n        /* \"#utility.yul\":1323:1440   */\n    tag_33:\n        /* \"#utility.yul\":1432:1433   */\n      0x00\n        /* \"#utility.yul\":1429:1430   */\n      dup1\n        /* \"#utility.yul\":1422:1434   */\n      revert\n        /* \"#utility.yul\":1446:1563   */\n    tag_34:\n        /* \"#utility.yul\":1555:1556   */\n      0x00\n        /* \"#utility.yul\":1552:1553   */\n      dup1\n        /* \"#utility.yul\":1545:1557   */\n      revert\n        /* \"#utility.yul\":1569:1686   */\n    tag_35:\n        /* \"#utility.yul\":1678:1679   */\n      0x00\n        /* \"#utility.yul\":1675:1676   */\n      dup1\n        /* \"#utility.yul\":1668:1680   */\n      revert\n        /* \"#utility.yul\":1692:1809   */\n    tag_36:\n        /* \"#utility.yul\":1801:1802   */\n      0x00\n        /* \"#utility.yul\":1798:1799   */\n      dup1\n        /* \"#utility.yul\":1791:1803   */\n      revert\n        /* \"#utility.yul\":1815:1995   */\n    tag_37:\n        /* \"#utility.yul\":1863:1940   */\n      0x4e487b7100000000000000000000000000000000000000000000000000000000\n        /* \"#utility.yul\":1860:1861   */\n      0x00\n        /* \"#utility.yul\":1853:1941   */\n      mstore\n        /* \"#utility.yul\":1960:1964   */\n      0x41\n        /* \"#utility.yul\":1957:1958   */\n      0x04\n        /* \"#utility.yul\":1950:1965   */\n      mstore\n        /* \"#utility.yul\":1984:1988   */\n      0x24\n        /* \"#utility.yul\":1981:1982   */\n      0x00\n        /* \"#utility.yul\":1974:1989   */\n      revert\n        /* \"#utility.yul\":2001:2282   */\n    tag_38:\n        /* \"#utility.yul\":2084:2111   */\n      tag_82\n        /* \"#utility.yul\":2106:2110   */\n      dup3\n        /* \"#utility.yul\":2084:2111   */\n      tag_30\n      jump\t// in\n    tag_82:\n        /* \"#utility.yul\":2076:2082   */\n      dup2\n        /* \"#utility.yul\":2072:2112   */\n      add\n        /* \"#utility.yul\":2214:2220   */\n      dup2\n        /* \"#utility.yul\":2202:2212   */\n      dup2\n        /* \"#utility.yul\":2199:2221   */\n      lt\n        /* \"#utility.yul\":2178:2196   */\n      0xffffffffffffffff\n        /* \"#utility.yul\":2166:2176   */\n      dup3\n        /* \"#utility.yul\":2163:2197   */\n      gt\n        /* \"#utility.yul\":2160:2222   */\n      or\n        /* \"#utility.yul\":2157:2245   */\n      iszero\n      tag_83\n      jumpi\n        /* \"#utility.yul\":2225:2243   */\n      tag_84\n      tag_37\n      jump\t// in\n    tag_84:\n        /* \"#utility.yul\":2157:2245   */\n    tag_83:\n        /* \"#utility.yul\":2265:2275   */\n      dup1\n        /* \"#utility.yul\":2261:2263   */\n      0x40\n        /* \"#utility.yul\":2254:2276   */\n      mstore\n        /* \"#utility.yul\":2044:2282   */\n      pop\n        /* \"#utility.yul\":2001:2282   */\n      pop\n      pop\n      jump\t// out\n        /* \"#utility.yul\":2288:2417   */\n    tag_39:\n        /* \"#utility.yul\":2322:2328   */\n      0x00\n        /* \"#utility.yul\":2349:2369   */\n      tag_86\n      tag_32\n      jump\t// in\n    tag_86:\n        /* \"#utility.yul\":2339:2369   */\n      swap1\n      pop\n        /* \"#utility.yul\":2378:2411   */\n      tag_87\n        /* \"#utility.yul\":2406:2410   */\n      dup3\n        /* \"#utility.yul\":2398:2404   */\n      dup3\n        /* \"#utility.yul\":2378:2411   */\n      tag_38\n      jump\t// in\n    tag_87:\n        /* \"#utility.yul\":2288:2417   */\n      swap2\n      swap1\n      pop\n      jump\t// out\n        /* \"#utility.yul\":2423:2731   */\n    tag_40:\n        /* \"#utility.yul\":2485:2489   */\n      0x00\n        /* \"#utility.yul\":2575:2593   */\n      0xffffffffffffffff\n        /* \"#utility.yul\":2567:2573   */\n      dup3\n        /* \"#utility.yul\":2564:2594   */\n      gt\n        /* \"#utility.yul\":2561:2617   */\n      iszero\n      tag_89\n      jumpi\n        /* \"#utility.yul\":2597:2615   */\n      tag_90\n      tag_37\n      jump\t// in\n    tag_90:\n        /* \"#utility.yul\":2561:2617   */\n    tag_89:\n        /* \"#utility.yul\":2635:2664   */\n      tag_91\n        /* \"#utility.yul\":2657:2663   */\n      dup3\n        /* \"#utility.yul\":2635:2664   */\n      tag_30\n      jump\t// in\n    tag_91:\n        /* \"#utility.yul\":2627:2664   */\n      swap1\n      pop\n        /* \"#utility.yul\":2719:2723   */\n      0x20\n        /* \"#utility.yul\":2713:2717   */\n      dup2\n        /* \"#utility.yul\":2709:2724   */\n      add\n        /* \"#utility.yul\":2701:2724   */\n      swap1\n      pop\n        /* \"#utility.yul\":2423:2731   */\n      swap2\n      swap1\n      pop\n      jump\t// out\n        /* \"#utility.yul\":2737:2885   */\n    tag_41:\n        /* \"#utility.yul\":2835:2841   */\n      dup3\n        /* \"#utility.yul\":2830:2833   */\n      dup2\n        /* \"#utility.yul\":2825:2828   */\n      dup4\n        /* \"#utility.yul\":2812:2842   */\n      calldatacopy\n        /* \"#utility.yul\":2876:2877   */\n      0x00\n        /* \"#utility.yul\":2867:2873   */\n      dup4\n        /* \"#utility.yul\":2862:2865   */\n      dup4\n        /* \"#utility.yul\":2858:2874   */\n      add\n        /* \"#utility.yul\":2851:2878   */\n      mstore\n        /* \"#utility.yul\":2737:2885   */\n      pop\n      pop\n      pop\n      jump\t// out\n        /* \"#utility.yul\":2891:3316   */\n    tag_42:\n        /* \"#utility.yul\":2969:2974   */\n      0x00\n        /* \"#utility.yul\":2994:3060   */\n      tag_94\n        /* \"#utility.yul\":3010:3059   */\n      tag_95\n        /* \"#utility.yul\":3052:3058   */\n      dup5\n        /* \"#utility.yul\":3010:3059   */\n      tag_40\n      jump\t// in\n    tag_95:\n        /* \"#utility.yul\":2994:3060   */\n      tag_39\n      jump\t// in\n    tag_94:\n        /* \"#utility.yul\":2985:3060   */\n      swap1\n      pop\n        /* \"#utility.yul\":3083:3089   */\n      dup3\n        /* \"#utility.yul\":3076:3081   */\n      dup2\n        /* \"#utility.yul\":3069:3090   */\n      mstore\n        /* \"#utility.yul\":3121:3125   */\n      0x20\n        /* \"#utility.yul\":3114:3119   */\n      dup2\n        /* \"#utility.yul\":3110:3126   */\n      add\n        /* \"#utility.yul\":3159:3162   */\n      dup5\n        /* \"#utility.yul\":3150:3156   */\n      dup5\n        /* \"#utility.yul\":3145:3148   */\n      dup5\n        /* \"#utility.yul\":3141:3157   */\n      add\n        /* \"#utility.yul\":3138:3163   */\n      gt\n        /* \"#utility.yul\":3135:3247   */\n      iszero\n      tag_96\n      jumpi\n        /* \"#utility.yul\":3166:3245   */\n      tag_97\n      tag_36\n      jump\t// in\n    tag_97:\n        /* \"#utility.yul\":3135:3247   */\n    tag_96:\n        /* \"#utility.yul\":3256:3310   */\n      tag_98\n        /* \"#utility.yul\":3303:3309   */\n      dup5\n        /* \"#utility.yul\":3298:3301   */\n      dup3\n        /* \"#utility.yul\":3293:3296   */\n      dup6\n        /* \"#utility.yul\":3256:3310   */\n      tag_41\n      jump\t// in\n    tag_98:\n        /* \"#utility.yul\":2975:3316   */\n      pop\n        /* \"#utility.yul\":2891:3316   */\n      swap4\n      swap3\n      pop\n      pop\n      pop\n      jump\t// out\n        /* \"#utility.yul\":3336:3676   */\n    tag_43:\n        /* \"#utility.yul\":3392:3397   */\n      0x00\n        /* \"#utility.yul\":3441:3444   */\n      dup3\n        /* \"#utility.yul\":3434:3438   */\n      0x1f\n        /* \"#utility.yul\":3426:3432   */\n      dup4\n        /* \"#utility.yul\":3422:3439   */\n      add\n        /* \"#utility.yul\":3418:3445   */\n      slt\n        /* \"#utility.yul\":3408:3530   */\n      tag_100\n      jumpi\n        /* \"#utility.yul\":3449:3528   */\n      tag_101\n      tag_35\n      jump\t// in\n    tag_101:\n        /* \"#utility.yul\":3408:3530   */\n    tag_100:\n        /* \"#utility.yul\":3566:3572   */\n      dup2\n        /* \"#utility.yul\":3553:3573   */\n      calldataload\n        /* \"#utility.yul\":3591:3670   */\n      tag_102\n        /* \"#utility.yul\":3666:3669   */\n      dup5\n        /* \"#utility.yul\":3658:3664   */\n      dup3\n        /* \"#utility.yul\":3651:3655   */\n      0x20\n        /* \"#utility.yul\":3643:3649   */\n      dup7\n        /* \"#utility.yul\":3639:3656   */\n      add\n        /* \"#utility.yul\":3591:3670   */\n      tag_42\n      jump\t// in\n    tag_102:\n        /* \"#utility.yul\":3582:3670   */\n      swap2\n      pop\n        /* \"#utility.yul\":3398:3676   */\n      pop\n        /* \"#utility.yul\":3336:3676   */\n      swap3\n      swap2\n      pop\n      pop\n      jump\t// out\n        /* \"#utility.yul\":3682:4191   */\n    tag_11:\n        /* \"#utility.yul\":3751:3757   */\n      0x00\n        /* \"#utility.yul\":3800:3802   */\n      0x20\n        /* \"#utility.yul\":3788:3797   */\n      dup3\n        /* \"#utility.yul\":3779:3786   */\n      dup5\n        /* \"#utility.yul\":3775:3798   */\n      sub\n        /* \"#utility.yul\":3771:3803   */\n      slt\n        /* \"#utility.yul\":3768:3887   */\n      iszero\n      tag_104\n      jumpi\n        /* \"#utility.yul\":3806:3885   */\n      tag_105\n      tag_33\n      jump\t// in\n    tag_105:\n        /* \"#utility.yul\":3768:3887   */\n    tag_104:\n        /* \"#utility.yul\":3954:3955   */\n      0x00\n        /* \"#utility.yul\":3943:3952   */\n      dup3\n        /* \"#utility.yul\":3939:3956   */\n      add\n        /* \"#utility.yul\":3926:3957   */\n      calldataload\n        /* \"#utility.yul\":3984:4002   */\n      0xffffffffffffffff\n        /* \"#utility.yul\":3976:3982   */\n      dup2\n        /* \"#utility.yul\":3973:4003   */\n      gt\n        /* \"#utility.yul\":3970:4087   */\n      iszero\n      tag_106\n      jumpi\n        /* \"#utility.yul\":4006:4085   */\n      tag_107\n      tag_34\n      jump\t// in\n    tag_107:\n        /* \"#utility.yul\":3970:4087   */\n    tag_106:\n        /* \"#utility.yul\":4111:4174   */\n      tag_108\n        /* \"#utility.yul\":4166:4173   */\n      dup5\n        /* \"#utility.yul\":4157:4163   */\n      dup3\n        /* \"#utility.yul\":4146:4155   */\n      dup6\n        /* \"#utility.yul\":4142:4164   */\n      add\n        /* \"#utility.yul\":4111:4174   */\n      tag_43\n      jump\t// in\n    tag_108:\n        /* \"#utility.yul\":4101:4174   */\n      swap2\n      pop\n        /* \"#utility.yul\":3897:4184   */\n      pop\n        /* \"#utility.yul\":3682:4191   */\n      swap3\n      swap2\n      pop\n      pop\n      jump\t// out\n        /* \"#utility.yul\":4197:4377   */\n    tag_44:\n        /* \"#utility.yul\":4245:4322   */\n      0x4e487b7100000000000000000000000000000000000000000000000000000000\n        /* \"#utility.yul\":4242:4243   */\n      0x00\n        /* \"#utility.yul\":4235:4323   */\n      mstore\n        /* \"#utility.yul\":4342:4346   */\n      0x22\n        /* \"#utility.yul\":4339:4340   */\n      0x04\n        /* \"#utility.yul\":4332:4347   */\n      mstore\n        /* \"#utility.yul\":4366:4370   */\n      0x24\n        /* \"#utility.yul\":4363:4364   */\n      0x00\n        /* \"#utility.yul\":4356:4371   */\n      revert\n        /* \"#utility.yul\":4383:4703   */\n    tag_15:\n        /* \"#utility.yul\":4427:4433   */\n      0x00\n        /* \"#utility.yul\":4464:4465   */\n      0x02\n        /* \"#utility.yul\":4458:4462   */\n      dup3\n        /* \"#utility.yul\":4454:4466   */\n      div\n        /* \"#utility.yul\":4444:4466   */\n      swap1\n      pop\n        /* \"#utility.yul\":4511:4512   */\n      0x01\n        /* \"#utility.yul\":4505:4509   */\n      dup3\n        /* \"#utility.yul\":4501:4513   */\n      and\n        /* \"#utility.yul\":4532:4550   */\n      dup1\n        /* \"#utility.yul\":4522:4603   */\n      tag_111\n      jumpi\n        /* \"#utility.yul\":4588:4592   */\n      0x7f\n        /* \"#utility.yul\":4580:4586   */\n      dup3\n        /* \"#utility.yul\":4576:4593   */\n      and\n        /* \"#utility.yul\":4566:4593   */\n      swap2\n      pop\n        /* \"#utility.yul\":4522:4603   */\n    tag_111:\n        /* \"#utility.yul\":4650:4652   */\n      0x20\n        /* \"#utility.yul\":4642:4648   */\n      dup3\n        /* \"#utility.yul\":4639:4653   */\n      lt\n        /* \"#utility.yul\":4619:4637   */\n      dup2\n        /* \"#utility.yul\":4616:4654   */\n      sub\n        /* \"#utility.yul\":4613:4697   */\n      tag_112\n      jumpi\n        /* \"#utility.yul\":4669:4687   */\n      tag_113\n      tag_44\n      jump\t// in\n    tag_113:\n        /* \"#utility.yul\":4613:4697   */\n    tag_112:\n        /* \"#utility.yul\":4434:4703   */\n      pop\n        /* \"#utility.yul\":4383:4703   */\n      swap2\n      swap1\n      pop\n      jump\t// out\n        /* \"#utility.yul\":4709:4880   */\n    tag_45:\n        /* \"#utility.yul\":4849:4872   */\n      0x596f7520617265206e6f7420746865206f776e65720000000000000000000000\n        /* \"#utility.yul\":4845:4846   */\n      0x00\n        /* \"#utility.yul\":4837:4843   */\n      dup3\n        /* \"#utility.yul\":4833:4847   */\n      add\n        /* \"#utility.yul\":4826:4873   */\n      mstore\n        /* \"#utility.yul\":4709:4880   */\n      pop\n      jump\t// out\n        /* \"#utility.yul\":4886:5252   */\n    tag_46:\n        /* \"#utility.yul\":5028:5031   */\n      0x00\n        /* \"#utility.yul\":5049:5116   */\n      tag_116\n        /* \"#utility.yul\":5113:5115   */\n      0x15\n        /* \"#utility.yul\":5108:5111   */\n      dup4\n        /* \"#utility.yul\":5049:5116   */\n      tag_28\n      jump\t// in\n    tag_116:\n        /* \"#utility.yul\":5042:5116   */\n      swap2\n      pop\n        /* \"#utility.yul\":5125:5218   */\n      tag_117\n        /* \"#utility.yul\":5214:5217   */\n      dup3\n        /* \"#utility.yul\":5125:5218   */\n      tag_45\n      jump\t// in\n    tag_117:\n        /* \"#utility.yul\":5243:5245   */\n      0x20\n        /* \"#utility.yul\":5238:5241   */\n      dup3\n        /* \"#utility.yul\":5234:5246   */\n      add\n        /* \"#utility.yul\":5227:5246   */\n      swap1\n      pop\n        /* \"#utility.yul\":4886:5252   */\n      swap2\n      swap1\n      pop\n      jump\t// out\n        /* \"#utility.yul\":5258:5677   */\n    tag_23:\n        /* \"#utility.yul\":5424:5428   */\n      0x00\n        /* \"#utility.yul\":5462:5464   */\n      0x20\n        /* \"#utility.yul\":5451:5460   */\n      dup3\n        /* \"#utility.yul\":5447:5465   */\n      add\n        /* \"#utility.yul\":5439:5465   */\n      swap1\n      pop\n        /* \"#utility.yul\":5511:5520   */\n      dup2\n        /* \"#utility.yul\":5505:5509   */\n      dup2\n        /* \"#utility.yul\":5501:5521   */\n      sub\n        /* \"#utility.yul\":5497:5498   */\n      0x00\n        /* \"#utility.yul\":5486:5495   */\n      dup4\n        /* \"#utility.yul\":5482:5499   */\n      add\n        /* \"#utility.yul\":5475:5522   */\n      mstore\n        /* \"#utility.yul\":5539:5670   */\n      tag_119\n        /* \"#utility.yul\":5665:5669   */\n      dup2\n        /* \"#utility.yul\":5539:5670   */\n      tag_46\n      jump\t// in\n    tag_119:\n        /* \"#utility.yul\":5531:5670   */\n      swap1\n      pop\n        /* \"#utility.yul\":5258:5677   */\n      swap2\n      swap1\n      pop\n      jump\t// out\n        /* \"#utility.yul\":5683:5824   */\n    tag_47:\n        /* \"#utility.yul\":5732:5736   */\n      0x00\n        /* \"#utility.yul\":5755:5758   */\n      dup2\n        /* \"#utility.yul\":5747:5758   */\n      swap1\n      pop\n        /* \"#utility.yul\":5778:5781   */\n      dup2\n        /* \"#utility.yul\":5775:5776   */\n      0x00\n        /* \"#utility.yul\":5768:5782   */\n      mstore\n        /* \"#utility.yul\":5812:5816   */\n      0x20\n        /* \"#utility.yul\":5809:5810   */\n      0x00\n        /* \"#utility.yul\":5799:5817   */\n      keccak256\n        /* \"#utility.yul\":5791:5817   */\n      swap1\n      pop\n        /* \"#utility.yul\":5683:5824   */\n      swap2\n      swap1\n      pop\n      jump\t// out\n        /* \"#utility.yul\":5830:5923   */\n    tag_48:\n        /* \"#utility.yul\":5867:5873   */\n      0x00\n        /* \"#utility.yul\":5914:5916   */\n      0x20\n        /* \"#utility.yul\":5909:5911   */\n      0x1f\n        /* \"#utility.yul\":5902:5907   */\n      dup4\n        /* \"#utility.yul\":5898:5912   */\n      add\n        /* \"#utility.yul\":5894:5917   */\n      div\n        /* \"#utility.yul\":5884:5917   */\n      swap1\n      pop\n        /* \"#utility.yul\":5830:5923   */\n      swap2\n      swap1\n      pop\n      jump\t// out\n        /* \"#utility.yul\":5929:6036   */\n    tag_49:\n        /* \"#utility.yul\":5973:5981   */\n      0x00\n        /* \"#utility.yul\":6023:6028   */\n      dup3\n        /* \"#utility.yul\":6017:6021   */\n      dup3\n        /* \"#utility.yul\":6013:6029   */\n      shl\n        /* \"#utility.yul\":5992:6029   */\n      swap1\n      pop\n        /* \"#utility.yul\":5929:6036   */\n      swap3\n      swap2\n      pop\n      pop\n      jump\t// out\n        /* \"#utility.yul\":6042:6435   */\n    tag_50:\n        /* \"#utility.yul\":6111:6117   */\n      0x00\n        /* \"#utility.yul\":6161:6162   */\n      0x08\n        /* \"#utility.yul\":6149:6159   */\n      dup4\n        /* \"#utility.yul\":6145:6163   */\n      mul\n        /* \"#utility.yul\":6184:6281   */\n      tag_124\n        /* \"#utility.yul\":6214:6280   */\n      0xffffffffffffffffffffffffffffffffffffffffffffffffffffffffffffffff\n        /* \"#utility.yul\":6203:6212   */\n      dup3\n        /* \"#utility.yul\":6184:6281   */\n      tag_49\n      jump\t// in\n    tag_124:\n        /* \"#utility.yul\":6302:6341   */\n      tag_125\n        /* \"#utility.yul\":6332:6340   */\n      dup7\n        /* \"#utility.yul\":6321:6330   */\n      dup4\n        /* \"#utility.yul\":6302:6341   */\n      tag_49\n      jump\t// in\n    tag_125:\n        /* \"#utility.yul\":6290:6341   */\n      swap6\n      pop\n        /* \"#utility.yul\":6374:6378   */\n      dup1\n        /* \"#utility.yul\":6370:6379   */\n      not\n        /* \"#utility.yul\":6363:6368   */\n      dup5\n        /* \"#utility.yul\":6359:6380   */\n      and\n        /* \"#utility.yul\":6350:6380   */\n      swap4\n      pop\n        /* \"#utility.yul\":6423:6427   */\n      dup1\n        /* \"#utility.yul\":6413:6421   */\n      dup7\n        /* \"#utility.yul\":6409:6428   */\n      and\n        /* \"#utility.yul\":6402:6407   */\n      dup5\n        /* \"#utility.yul\":6399:6429   */\n      or\n        /* \"#utility.yul\":6389:6429   */\n      swap3\n      pop\n        /* \"#utility.yul\":6118:6435   */\n      pop\n      pop\n        /* \"#utility.yul\":6042:6435   */\n      swap4\n      swap3\n      pop\n      pop\n      pop\n      jump\t// out\n        /* \"#utility.yul\":6441:6518   */\n    tag_51:\n        /* \"#utility.yul\":6478:6485   */\n      0x00\n        /* \"#utility.yul\":6507:6512   */\n      dup2\n        /* \"#utility.yul\":6496:6512   */\n      swap1\n      pop\n        /* \"#utility.yul\":6441:6518   */\n      swap2\n      swap1\n      pop\n      jump\t// out\n        /* \"#utility.yul\":6524:6584   */\n    tag_52:\n        /* \"#utility.yul\":6552:6555   */\n      0x00\n        /* \"#utility.yul\":6573:6578   */\n      dup2\n        /* \"#utility.yul\":6566:6578   */\n      swap1\n      pop\n        /* \"#utility.yul\":6524:6584   */\n      swap2\n      swap1\n      pop\n      jump\t// out\n        /* \"#utility.yul\":6590:6732   */\n    tag_53:\n        /* \"#utility.yul\":6640:6649   */\n      0x00\n        /* \"#utility.yul\":6673:6726   */\n      tag_129\n        /* \"#utility.yul\":6691:6725   */\n      tag_130\n        /* \"#utility.yul\":6700:6724   */\n      tag_131\n        /* \"#utility.yul\":6718:6723   */\n      dup5\n        /* \"#utility.yul\":6700:6724   */\n      tag_51\n      jump\t// in\n    tag_131:\n        /* \"#utility.yul\":6691:6725   */\n      tag_52\n      jump\t// in\n    tag_130:\n        /* \"#utility.yul\":6673:6726   */\n      tag_51\n      jump\t// in\n    tag_129:\n        /* \"#utility.yul\":6660:6726   */\n      swap1\n      pop\n        /* \"#utility.yul\":6590:6732   */\n      swap2\n      swap1\n      pop\n      jump\t// out\n        /* \"#utility.yul\":6738:6813   */\n    tag_54:\n        /* \"#utility.yul\":6781:6784   */\n      0x00\n        /* \"#utility.yul\":6802:6807   */\n      dup2\n        /* \"#utility.yul\":6795:6807   */\n      swap1\n      pop\n        /* \"#utility.yul\":6738:6813   */\n      swap2\n      swap1\n      pop\n      jump\t// out\n        /* \"#utility.yul\":6819:7088   */\n    tag_55:\n        /* \"#utility.yul\":6929:6968   */\n      tag_134\n        /* \"#utility.yul\":6960:6967   */\n      dup4\n        /* \"#utility.yul\":6929:6968   */\n      tag_53\n      jump\t// in\n    tag_134:\n        /* \"#utility.yul\":6990:7081   */\n      tag_135\n        /* \"#utility.yul\":7039:7080   */\n      tag_136\n        /* \"#utility.yul\":7063:7079   */\n      dup3\n        /* \"#utility.yul\":7039:7080   */\n      tag_54\n      jump\t// in\n    tag_136:\n        /* \"#utility.yul\":7031:7037   */\n      dup5\n        /* \"#utility.yul\":7024:7028   */\n      dup5\n        /* \"#utility.yul\":7018:7029   */\n      sload\n        /* \"#utility.yul\":6990:7081   */\n      tag_50\n      jump\t// in\n    tag_135:\n        /* \"#utility.yul\":6984:6988   */\n      dup3\n        /* \"#utility.yul\":6977:7082   */\n      sstore\n        /* \"#utility.yul\":6895:7088   */\n      pop\n        /* \"#utility.yul\":6819:7088   */\n      pop\n      pop\n      pop\n      jump\t// out\n        /* \"#utility.yul\":7094:7167   */\n    tag_56:\n        /* \"#utility.yul\":7139:7142   */\n      0x00\n        /* \"#utility.yul\":7094:7167   */\n      swap1\n      jump\t// out\n        /* \"#utility.yul\":7173:7362   */\n    tag_57:\n        /* \"#utility.yul\":7250:7282   */\n      tag_139\n      tag_56\n      jump\t// in\n    tag_139:\n        /* \"#utility.yul\":7291:7356   */\n      tag_140\n        /* \"#utility.yul\":7349:7355   */\n      dup2\n        /* \"#utility.yul\":7341:7347   */\n      dup5\n        /* \"#utility.yul\":7335:7339   */\n      dup5\n        /* \"#utility.yul\":7291:7356   */\n      tag_55\n      jump\t// in\n    tag_140:\n        /* \"#utility.yul\":7226:7362   */\n      pop\n        /* \"#utility.yul\":7173:7362   */\n      pop\n      pop\n      jump\t// out\n        /* \"#utility.yul\":7368:7554   */\n    tag_58:\n        /* \"#utility.yul\":7428:7548   */\n    tag_142:\n        /* \"#utility.yul\":7445:7448   */\n      dup2\n        /* \"#utility.yul\":7438:7443   */\n      dup2\n        /* \"#utility.yul\":7435:7449   */\n      lt\n        /* \"#utility.yul\":7428:7548   */\n      iszero\n      tag_144\n      jumpi\n        /* \"#utility.yul\":7499:7538   */\n      tag_145\n        /* \"#utility.yul\":7536:7537   */\n      0x00\n        /* \"#utility.yul\":7529:7534   */\n      dup3\n        /* \"#utility.yul\":7499:7538   */\n      tag_57\n      jump\t// in\n    tag_145:\n        /* \"#utility.yul\":7472:7473   */\n      0x01\n        /* \"#utility.yul\":7465:7470   */\n      dup2\n        /* \"#utility.yul\":7461:7474   */\n      add\n        /* \"#utility.yul\":7452:7474   */\n      swap1\n      pop\n        /* \"#utility.yul\":7428:7548   */\n      jump(tag_142)\n    tag_144:\n        /* \"#utility.yul\":7368:7554   */\n      pop\n      pop\n      jump\t// out\n        /* \"#utility.yul\":7560:8103   */\n    tag_59:\n        /* \"#utility.yul\":7661:7663   */\n      0x1f\n        /* \"#utility.yul\":7656:7659   */\n      dup3\n        /* \"#utility.yul\":7653:7664   */\n      gt\n        /* \"#utility.yul\":7650:8096   */\n      iszero\n      tag_147\n      jumpi\n        /* \"#utility.yul\":7695:7733   */\n      tag_148\n        /* \"#utility.yul\":7727:7732   */\n      dup2\n        /* \"#utility.yul\":7695:7733   */\n      tag_47\n      jump\t// in\n    tag_148:\n        /* \"#utility.yul\":7779:7808   */\n      tag_149\n        /* \"#utility.yul\":7797:7807   */\n      dup5\n        /* \"#utility.yul\":7779:7808   */\n      tag_48\n      jump\t// in\n    tag_149:\n        /* \"#utility.yul\":7769:7777   */\n      dup2\n        /* \"#utility.yul\":7765:7809   */\n      add\n        /* \"#utility.yul\":7962:7964   */\n      0x20\n        /* \"#utility.yul\":7950:7960   */\n      dup6\n        /* \"#utility.yul\":7947:7965   */\n      lt\n        /* \"#utility.yul\":7944:7993   */\n      iszero\n      tag_150\n      jumpi\n        /* \"#utility.yul\":7983:7991   */\n      dup2\n        /* \"#utility.yul\":7968:7991   */\n      swap1\n      pop\n        /* \"#utility.yul\":7944:7993   */\n    tag_150:\n        /* \"#utility.yul\":8006:8086   */\n      tag_151\n        /* \"#utility.yul\":8062:8084   */\n      tag_152\n        /* \"#utility.yul\":8080:8083   */\n      dup6\n        /* \"#utility.yul\":8062:8084   */\n      tag_48\n      jump\t// in\n    tag_152:\n        /* \"#utility.yul\":8052:8060   */\n      dup4\n        /* \"#utility.yul\":8048:8085   */\n      add\n        /* \"#utility.yul\":8035:8046   */\n      dup3\n        /* \"#utility.yul\":8006:8086   */\n      tag_58\n      jump\t// in\n    tag_151:\n        /* \"#utility.yul\":7665:8096   */\n      pop\n      pop\n        /* \"#utility.yul\":7650:8096   */\n    tag_147:\n        /* \"#utility.yul\":7560:8103   */\n      pop\n      pop\n      pop\n      jump\t// out\n        /* \"#utility.yul\":8109:8226   */\n    tag_60:\n        /* \"#utility.yul\":8163:8171   */\n      0x00\n        /* \"#utility.yul\":8213:8218   */\n      dup3\n        /* \"#utility.yul\":8207:8211   */\n      dup3\n        /* \"#utility.yul\":8203:8219   */\n      shr\n        /* \"#utility.yul\":8182:8219   */\n      swap1\n      pop\n        /* \"#utility.yul\":8109:8226   */\n      swap3\n      swap2\n      pop\n      pop\n      jump\t// out\n        /* \"#utility.yul\":8232:8401   */\n    tag_61:\n        /* \"#utility.yul\":8276:8282   */\n      0x00\n        /* \"#utility.yul\":8309:8360   */\n      tag_155\n        /* \"#utility.yul\":8357:8358   */\n      0x00\n        /* \"#utility.yul\":8353:8359   */\n      not\n        /* \"#utility.yul\":8345:8350   */\n      dup5\n        /* \"#utility.yul\":8342:8343   */\n      0x08\n        /* \"#utility.yul\":8338:8351   */\n      mul\n        /* \"#utility.yul\":8309:8360   */\n      tag_60\n      jump\t// in\n    tag_155:\n        /* \"#utility.yul\":8305:8361   */\n      not\n        /* \"#utility.yul\":8390:8394   */\n      dup1\n        /* \"#utility.yul\":8384:8388   */\n      dup4\n        /* \"#utility.yul\":8380:8395   */\n      and\n        /* \"#utility.yul\":8370:8395   */\n      swap2\n      pop\n        /* \"#utility.yul\":8283:8401   */\n      pop\n        /* \"#utility.yul\":8232:8401   */\n      swap3\n      swap2\n      pop\n      pop\n      jump\t// out\n        /* \"#utility.yul\":8406:8701   */\n    tag_62:\n        /* \"#utility.yul\":8482:8486   */\n      0x00\n        /* \"#utility.yul\":8628:8657   */\n      tag_157\n        /* \"#utility.yul\":8653:8656   */\n      dup4\n        /* \"#utility.yul\":8647:8651   */\n      dup4\n        /* \"#utility.yul\":8628:8657   */\n      tag_61\n      jump\t// in\n    tag_157:\n        /* \"#utility.yul\":8620:8657   */\n      swap2\n      pop\n        /* \"#utility.yul\":8690:8693   */\n      dup3\n        /* \"#utility.yul\":8687:8688   */\n      0x02\n        /* \"#utility.yul\":8683:8694   */\n      mul\n        /* \"#utility.yul\":8677:8681   */\n      dup3\n        /* \"#utility.yul\":8674:8695   */\n      or\n        /* \"#utility.yul\":8666:8695   */\n      swap1\n      pop\n        /* \"#utility.yul\":8406:8701   */\n      swap3\n      swap2\n      pop\n      pop\n      jump\t// out\n        /* \"#utility.yul\":8706:10101   */\n    tag_26:\n        /* \"#utility.yul\":8823:8860   */\n      tag_159\n        /* \"#utility.yul\":8856:8859   */\n      dup3\n        /* \"#utility.yul\":8823:8860   */\n      tag_27\n      jump\t// in\n    tag_159:\n        /* \"#utility.yul\":8925:8943   */\n      0xffffffffffffffff\n        /* \"#utility.yul\":8917:8923   */\n      dup2\n        /* \"#utility.yul\":8914:8944   */\n      gt\n        /* \"#utility.yul\":8911:8967   */\n      iszero\n      tag_160\n      jumpi\n        /* \"#utility.yul\":8947:8965   */\n      tag_161\n      tag_37\n      jump\t// in\n    tag_161:\n        /* \"#utility.yul\":8911:8967   */\n    tag_160:\n        /* \"#utility.yul\":8991:9029   */\n      tag_162\n        /* \"#utility.yul\":9023:9027   */\n      dup3\n        /* \"#utility.yul\":9017:9028   */\n      sload\n        /* \"#utility.yul\":8991:9029   */\n      tag_15\n      jump\t// in\n    tag_162:\n        /* \"#utility.yul\":9076:9143   */\n      tag_163\n        /* \"#utility.yul\":9136:9142   */\n      dup3\n        /* \"#utility.yul\":9128:9134   */\n      dup3\n        /* \"#utility.yul\":9122:9126   */\n      dup6\n        /* \"#utility.yul\":9076:9143   */\n      tag_59\n      jump\t// in\n    tag_163:\n        /* \"#utility.yul\":9170:9171   */\n      0x00\n        /* \"#utility.yul\":9194:9198   */\n      0x20\n        /* \"#utility.yul\":9181:9198   */\n      swap1\n      pop\n        /* \"#utility.yul\":9226:9228   */\n      0x1f\n        /* \"#utility.yul\":9218:9224   */\n      dup4\n        /* \"#utility.yul\":9215:9229   */\n      gt\n        /* \"#utility.yul\":9243:9244   */\n      0x01\n        /* \"#utility.yul\":9238:9856   */\n      dup2\n      eq\n      tag_165\n      jumpi\n        /* \"#utility.yul\":9900:9901   */\n      0x00\n        /* \"#utility.yul\":9917:9923   */\n      dup5\n        /* \"#utility.yul\":9914:9991   */\n      iszero\n      tag_166\n      jumpi\n        /* \"#utility.yul\":9966:9975   */\n      dup3\n        /* \"#utility.yul\":9961:9964   */\n      dup8\n        /* \"#utility.yul\":9957:9976   */\n      add\n        /* \"#utility.yul\":9951:9977   */\n      mload\n        /* \"#utility.yul\":9942:9977   */\n      swap1\n      pop\n        /* \"#utility.yul\":9914:9991   */\n    tag_166:\n        /* \"#utility.yul\":10017:10084   */\n      tag_167\n        /* \"#utility.yul\":10077:10083   */\n      dup6\n        /* \"#utility.yul\":10070:10075   */\n      dup3\n        /* \"#utility.yul\":10017:10084   */\n      tag_62\n      jump\t// in\n    tag_167:\n        /* \"#utility.yul\":10011:10015   */\n      dup7\n        /* \"#utility.yul\":10004:10085   */\n      sstore\n        /* \"#utility.yul\":9873:10095   */\n      pop\n        /* \"#utility.yul\":9208:10095   */\n      jump(tag_164)\n        /* \"#utility.yul\":9238:9856   */\n    tag_165:\n        /* \"#utility.yul\":9290:9294   */\n      0x1f\n        /* \"#utility.yul\":9286:9295   */\n      not\n        /* \"#utility.yul\":9278:9284   */\n      dup5\n        /* \"#utility.yul\":9274:9296   */\n      and\n        /* \"#utility.yul\":9324:9361   */\n      tag_168\n        /* \"#utility.yul\":9356:9360   */\n      dup7\n        /* \"#utility.yul\":9324:9361   */\n      tag_47\n      jump\t// in\n    tag_168:\n        /* \"#utility.yul\":9383:9384   */\n      0x00\n        /* \"#utility.yul\":9397:9605   */\n    tag_169:\n        /* \"#utility.yul\":9411:9418   */\n      dup3\n        /* \"#utility.yul\":9408:9409   */\n      dup2\n        /* \"#utility.yul\":9405:9419   */\n      lt\n        /* \"#utility.yul\":9397:9605   */\n      iszero\n      tag_171\n      jumpi\n        /* \"#utility.yul\":9490:9499   */\n      dup5\n        /* \"#utility.yul\":9485:9488   */\n      dup10\n        /* \"#utility.yul\":9481:9500   */\n      add\n        /* \"#utility.yul\":9475:9501   */\n      mload\n        /* \"#utility.yul\":9467:9473   */\n      dup3\n        /* \"#utility.yul\":9460:9502   */\n      sstore\n        /* \"#utility.yul\":9541:9542   */\n      0x01\n        /* \"#utility.yul\":9533:9539   */\n      dup3\n        /* \"#utility.yul\":9529:9543   */\n      add\n        /* \"#utility.yul\":9519:9543   */\n      swap2\n      pop\n        /* \"#utility.yul\":9588:9590   */\n      0x20\n        /* \"#utility.yul\":9577:9586   */\n      dup6\n        /* \"#utility.yul\":9573:9591   */\n      add\n        /* \"#utility.yul\":9560:9591   */\n      swap5\n      pop\n        /* \"#utility.yul\":9434:9438   */\n      0x20\n        /* \"#utility.yul\":9431:9432   */\n      dup2\n        /* \"#utility.yul\":9427:9439   */\n      add\n        /* \"#utility.yul\":9422:9439   */\n      swap1\n      pop\n        /* \"#utility.yul\":9397:9605   */\n      jump(tag_169)\n    tag_171:\n        /* \"#utility.yul\":9633:9639   */\n      dup7\n        /* \"#utility.yul\":9624:9631   */\n      dup4\n        /* \"#utility.yul\":9621:9640   */\n      lt\n        /* \"#utility.yul\":9618:9797   */\n      iszero\n      tag_172\n      jumpi\n        /* \"#utility.yul\":9691:9700   */\n      dup5\n        /* \"#utility.yul\":9686:9689   */\n      dup10\n        /* \"#utility.yul\":9682:9701   */\n      add\n        /* \"#utility.yul\":9676:9702   */\n      mload\n        /* \"#utility.yul\":9734:9782   */\n      tag_173\n        /* \"#utility.yul\":9776:9780   */\n      0x1f\n        /* \"#utility.yul\":9768:9774   */\n      dup10\n        /* \"#utility.yul\":9764:9781   */\n      and\n        /* \"#utility.yul\":9753:9762   */\n      dup3\n        /* \"#utility.yul\":9734:9782   */\n      tag_61\n      jump\t// in\n    tag_173:\n        /* \"#utility.yul\":9726:9732   */\n      dup4\n        /* \"#utility.yul\":9719:9783   */\n      sstore\n        /* \"#utility.yul\":9641:9797   */\n      pop\n        /* \"#utility.yul\":9618:9797   */\n    tag_172:\n        /* \"#utility.yul\":9843:9844   */\n      0x01\n        /* \"#utility.yul\":9839:9840   */\n      0x02\n        /* \"#utility.yul\":9831:9837   */\n      dup9\n        /* \"#utility.yul\":9827:9841   */\n      mul\n        /* \"#utility.yul\":9823:9845   */\n      add\n        /* \"#utility.yul\":9817:9821   */\n      dup9\n        /* \"#utility.yul\":9810:9846   */\n      sstore\n        /* \"#utility.yul\":9245:9856   */\n      pop\n      pop\n      pop\n        /* \"#utility.yul\":9208:10095   */\n    tag_164:\n      pop\n        /* \"#utility.yul\":8798:10101   */\n      pop\n      pop\n      pop\n        /* \"#utility.yul\":8706:10101   */\n      pop\n      pop\n      jump\t// out\n\n    auxdata: 0xa264697066735822122013ce44b807446f467e00a9baafac3a483ad4f20fc9775d633e35533c04a0945664736f6c63430008190033\n}\n",
				"bytecode": {
					"linkReferences": {},
					"object": "608060405234801561000f575f80fd5b50604051610833380380610833833981810160405281019061003191906100d5565b8060015f6101000a81548173ffffffffffffffffffffffffffffffffffffffff021916908373ffffffffffffffffffffffffffffffffffffffff16021790555050610100565b5f80fd5b5f73ffffffffffffffffffffffffffffffffffffffff82169050919050565b5f6100a48261007b565b9050919050565b6100b48161009a565b81146100be575f80fd5b50565b5f815190506100cf816100ab565b92915050565b5f602082840312156100ea576100e9610077565b5b5f6100f7848285016100c1565b91505092915050565b6107268061010d5f395ff3fe608060405234801561000f575f80fd5b5060043610610034575f3560e01c806317d7de7c14610038578063c47f002714610056575b5f80fd5b610040610072565b60405161004d9190610212565b60405180910390f35b610070600480360381019061006b919061036f565b610101565b005b60605f8054610080906103e3565b80601f01602080910402602001604051908101604052809291908181526020018280546100ac906103e3565b80156100f75780601f106100ce576101008083540402835291602001916100f7565b820191905f5260205f20905b8154815290600101906020018083116100da57829003601f168201915b5050505050905090565b60015f9054906101000a900473ffffffffffffffffffffffffffffffffffffffff1673ffffffffffffffffffffffffffffffffffffffff163373ffffffffffffffffffffffffffffffffffffffff1614610190576040517f08c379a00000000000000000000000000000000000000000000000000000000081526004016101879061045d565b60405180910390fd5b805f908161019e9190610621565b5050565b5f81519050919050565b5f82825260208201905092915050565b8281835e5f83830152505050565b5f601f19601f8301169050919050565b5f6101e4826101a2565b6101ee81856101ac565b93506101fe8185602086016101bc565b610207816101ca565b840191505092915050565b5f6020820190508181035f83015261022a81846101da565b905092915050565b5f604051905090565b5f80fd5b5f80fd5b5f80fd5b5f80fd5b7f4e487b71000000000000000000000000000000000000000000000000000000005f52604160045260245ffd5b610281826101ca565b810181811067ffffffffffffffff821117156102a05761029f61024b565b5b80604052505050565b5f6102b2610232565b90506102be8282610278565b919050565b5f67ffffffffffffffff8211156102dd576102dc61024b565b5b6102e6826101ca565b9050602081019050919050565b828183375f83830152505050565b5f61031361030e846102c3565b6102a9565b90508281526020810184848401111561032f5761032e610247565b5b61033a8482856102f3565b509392505050565b5f82601f83011261035657610355610243565b5b8135610366848260208601610301565b91505092915050565b5f602082840312156103845761038361023b565b5b5f82013567ffffffffffffffff8111156103a1576103a061023f565b5b6103ad84828501610342565b91505092915050565b7f4e487b71000000000000000000000000000000000000000000000000000000005f52602260045260245ffd5b5f60028204905060018216806103fa57607f821691505b60208210810361040d5761040c6103b6565b5b50919050565b7f596f7520617265206e6f7420746865206f776e657200000000000000000000005f82015250565b5f6104476015836101ac565b915061045282610413565b602082019050919050565b5f6020820190508181035f8301526104748161043b565b9050919050565b5f819050815f5260205f209050919050565b5f6020601f8301049050919050565b5f82821b905092915050565b5f600883026104d77fffffffffffffffffffffffffffffffffffffffffffffffffffffffffffffffff8261049c565b6104e1868361049c565b95508019841693508086168417925050509392505050565b5f819050919050565b5f819050919050565b5f61052561052061051b846104f9565b610502565b6104f9565b9050919050565b5f819050919050565b61053e8361050b565b61055261054a8261052c565b8484546104a8565b825550505050565b5f90565b61056661055a565b610571818484610535565b505050565b5b81811015610594576105895f8261055e565b600181019050610577565b5050565b601f8211156105d9576105aa8161047b565b6105b38461048d565b810160208510156105c2578190505b6105d66105ce8561048d565b830182610576565b50505b505050565b5f82821c905092915050565b5f6105f95f19846008026105de565b1980831691505092915050565b5f61061183836105ea565b9150826002028217905092915050565b61062a826101a2565b67ffffffffffffffff8111156106435761064261024b565b5b61064d82546103e3565b610658828285610598565b5f60209050601f831160018114610689575f8415610677578287015190505b6106818582610606565b8655506106e8565b601f1984166106978661047b565b5f5b828110156106be57848901518255600182019150602085019450602081019050610699565b868310156106db57848901516106d7601f8916826105ea565b8355505b6001600288020188555050505b50505050505056fea264697066735822122013ce44b807446f467e00a9baafac3a483ad4f20fc9775d633e35533c04a0945664736f6c63430008190033",
					"opcodes": "PUSH1 0x80 PUSH1 0x40 MSTORE CALLVALUE DUP1 ISZERO PUSH2 0xF JUMPI PUSH0 DUP1 REVERT JUMPDEST POP PUSH1 0x40 MLOAD PUSH2 0x833 CODESIZE SUB DUP1 PUSH2 0x833 DUP4 CODECOPY DUP2 DUP2 ADD PUSH1 0x40 MSTORE DUP2 ADD SWAP1 PUSH2 0x31 SWAP2 SWAP1 PUSH2 0xD5 JUMP JUMPDEST DUP1 PUSH1 0x1 PUSH0 PUSH2 0x100 EXP DUP2 SLOAD DUP2 PUSH20 0xFFFFFFFFFFFFFFFFFFFFFFFFFFFFFFFFFFFFFFFF MUL NOT AND SWAP1 DUP4 PUSH20 0xFFFFFFFFFFFFFFFFFFFFFFFFFFFFFFFFFFFFFFFF AND MUL OR SWAP1 SSTORE POP POP PUSH2 0x100 JUMP JUMPDEST PUSH0 DUP1 REVERT JUMPDEST PUSH0 PUSH20 0xFFFFFFFFFFFFFFFFFFFFFFFFFFFFFFFFFFFFFFFF DUP3 AND SWAP1 POP SWAP2 SWAP1 POP JUMP JUMPDEST PUSH0 PUSH2 0xA4 DUP3 PUSH2 0x7B JUMP JUMPDEST SWAP1 POP SWAP2 SWAP1 POP JUMP JUMPDEST PUSH2 0xB4 DUP2 PUSH2 0x9A JUMP JUMPDEST DUP2 EQ PUSH2 0xBE JUMPI PUSH0 DUP1 REVERT JUMPDEST POP JUMP JUMPDEST PUSH0 DUP2 MLOAD SWAP1 POP PUSH2 0xCF DUP2 PUSH2 0xAB JUMP JUMPDEST SWAP3 SWAP2 POP POP JUMP JUMPDEST PUSH0 PUSH1 0x20 DUP3 DUP5 SUB SLT ISZERO PUSH2 0xEA JUMPI PUSH2 0xE9 PUSH2 0x77 JUMP JUMPDEST JUMPDEST PUSH0 PUSH2 0xF7 DUP5 DUP3 DUP6 ADD PUSH2 0xC1 JUMP JUMPDEST SWAP2 POP POP SWAP3 SWAP2 POP POP JUMP JUMPDEST PUSH2 0x726 DUP1 PUSH2 0x10D PUSH0 CODECOPY PUSH0 RETURN INVALID PUSH1 0x80 PUSH1 0x40 MSTORE CALLVALUE DUP1 ISZERO PUSH2 0xF JUMPI PUSH0 DUP1 REVERT JUMPDEST POP PUSH1 0x4 CALLDATASIZE LT PUSH2 0x34 JUMPI PUSH0 CALLDATALOAD PUSH1 0xE0 SHR DUP1 PUSH4 0x17D7DE7C EQ PUSH2 0x38 JUMPI DUP1 PUSH4 0xC47F0027 EQ PUSH2 0x56 JUMPI JUMPDEST PUSH0 DUP1 REVERT JUMPDEST PUSH2 0x40 PUSH2 0x72 JUMP JUMPDEST PUSH1 0x40 MLOAD PUSH2 0x4D SWAP2 SWAP1 PUSH2 0x212 JUMP JUMPDEST PUSH1 0x40 MLOAD DUP1 SWAP2 SUB SWAP1 RETURN JUMPDEST PUSH2 0x70 PUSH1 0x4 DUP1 CALLDATASIZE SUB DUP2 ADD SWAP1 PUSH2 0x6B SWAP2 SWAP1 PUSH2 0x36F JUMP JUMPDEST PUSH2 0x101 JUMP JUMPDEST STOP JUMPDEST PUSH1 0x60 PUSH0 DUP1 SLOAD PUSH2 0x80 SWAP1 PUSH2 0x3E3 JUMP JUMPDEST DUP1 PUSH1 0x1F ADD PUSH1 0x20 DUP1 SWAP2 DIV MUL PUSH1 0x20 ADD PUSH1 0x40 MLOAD SWAP1 DUP2 ADD PUSH1 0x40 MSTORE DUP1 SWAP3 SWAP2 SWAP1 DUP2 DUP2 MSTORE PUSH1 0x20 ADD DUP3 DUP1 SLOAD PUSH2 0xAC SWAP1 PUSH2 0x3E3 JUMP JUMPDEST DUP1 ISZERO PUSH2 0xF7 JUMPI DUP1 PUSH1 0x1F LT PUSH2 0xCE JUMPI PUSH2 0x100 DUP1 DUP4 SLOAD DIV MUL DUP4 MSTORE SWAP2 PUSH1 0x20 ADD SWAP2 PUSH2 0xF7 JUMP JUMPDEST DUP3 ADD SWAP2 SWAP1 PUSH0 MSTORE PUSH1 0x20 PUSH0 KECCAK256 SWAP1 JUMPDEST DUP2 SLOAD DUP2 MSTORE SWAP1 PUSH1 0x1 ADD SWAP1 PUSH1 0x20 ADD DUP1 DUP4 GT PUSH2 0xDA JUMPI DUP3 SWAP1 SUB PUSH1 0x1F AND DUP3 ADD SWAP2 JUMPDEST POP POP POP POP POP SWAP1 POP SWAP1 JUMP JUMPDEST PUSH1 0x1 PUSH0 SWAP1 SLOAD SWAP1 PUSH2 0x100 EXP SWAP1 DIV PUSH20 0xFFFFFFFFFFFFFFFFFFFFFFFFFFFFFFFFFFFFFFFF AND PUSH20 0xFFFFFFFFFFFFFFFFFFFFFFFFFFFFFFFFFFFFFFFF AND CALLER PUSH20 0xFFFFFFFFFFFFFFFFFFFFFFFFFFFFFFFFFFFFFFFF AND EQ PUSH2 0x190 JUMPI PUSH1 0x40 MLOAD PUSH32 0x8C379A000000000000000000000000000000000000000000000000000000000 DUP2 MSTORE PUSH1 0x4 ADD PUSH2 0x187 SWAP1 PUSH2 0x45D JUMP JUMPDEST PUSH1 0x40 MLOAD DUP1 SWAP2 SUB SWAP1 REVERT JUMPDEST DUP1 PUSH0 SWAP1 DUP2 PUSH2 0x19E SWAP2 SWAP1 PUSH2 0x621 JUMP JUMPDEST POP POP JUMP JUMPDEST PUSH0 DUP2 MLOAD SWAP1 POP SWAP2 SWAP1 POP JUMP JUMPDEST PUSH0 DUP3 DUP3 MSTORE PUSH1 0x20 DUP3 ADD SWAP1 POP SWAP3 SWAP2 POP POP JUMP JUMPDEST DUP3 DUP2 DUP4 MCOPY PUSH0 DUP4 DUP4 ADD MSTORE POP POP POP JUMP JUMPDEST PUSH0 PUSH1 0x1F NOT PUSH1 0x1F DUP4 ADD AND SWAP1 POP SWAP2 SWAP1 POP JUMP JUMPDEST PUSH0 PUSH2 0x1E4 DUP3 PUSH2 0x1A2 JUMP JUMPDEST PUSH2 0x1EE DUP2 DUP6 PUSH2 0x1AC JUMP JUMPDEST SWAP4 POP PUSH2 0x1FE DUP2 DUP6 PUSH1 0x20 DUP7 ADD PUSH2 0x1BC JUMP JUMPDEST PUSH2 0x207 DUP2 PUSH2 0x1CA JUMP JUMPDEST DUP5 ADD SWAP2 POP POP SWAP3 SWAP2 POP POP JUMP JUMPDEST PUSH0 PUSH1 0x20 DUP3 ADD SWAP1 POP DUP2 DUP2 SUB PUSH0 DUP4 ADD MSTORE PUSH2 0x22A DUP2 DUP5 PUSH2 0x1DA JUMP JUMPDEST SWAP1 POP SWAP3 SWAP2 POP POP JUMP JUMPDEST PUSH0 PUSH1 0x40 MLOAD SWAP1 POP SWAP1 JUMP JUMPDEST PUSH0 DUP1 REVERT JUMPDEST PUSH0 DUP1 REVERT JUMPDEST PUSH0 DUP1 REVERT JUMPDEST PUSH0 DUP1 REVERT JUMPDEST PUSH32 0x4E487B7100000000000000000000000000000000000000000000000000000000 PUSH0 MSTORE PUSH1 0x41 PUSH1 0x4 MSTORE PUSH1 0x24 PUSH0 REVERT JUMPDEST PUSH2 0x281 DUP3 PUSH2 0x1CA JUMP JUMPDEST DUP2 ADD DUP2 DUP2 LT PUSH8 0xFFFFFFFFFFFFFFFF DUP3 GT OR ISZERO PUSH2 0x2A0 JUMPI PUSH2 0x29F PUSH2 0x24B JUMP JUMPDEST JUMPDEST DUP1 PUSH1 0x40 MSTORE POP POP POP JUMP JUMPDEST PUSH0 PUSH2 0x2B2 PUSH2 0x232 JUMP JUMPDEST SWAP1 POP PUSH2 0x2BE DUP3 DUP3 PUSH2 0x278 JUMP JUMPDEST SWAP2 SWAP1 POP JUMP JUMPDEST PUSH0 PUSH8 0xFFFFFFFFFFFFFFFF DUP3 GT ISZERO PUSH2 0x2DD JUMPI PUSH2 0x2DC PUSH2 0x24B JUMP JUMPDEST JUMPDEST PUSH2 0x2E6 DUP3 PUSH2 0x1CA JUMP JUMPDEST SWAP1 POP PUSH1 0x20 DUP2 ADD SWAP1 POP SWAP2 SWAP1 POP JUMP JUMPDEST DUP3 DUP2 DUP4 CALLDATACOPY PUSH0 DUP4 DUP4 ADD MSTORE POP POP POP JUMP JUMPDEST PUSH0 PUSH2 0x313 PUSH2 0x30E DUP5 PUSH2 0x2C3 JUMP JUMPDEST PUSH2 0x2A9 JUMP JUMPDEST SWAP1 POP DUP3 DUP2 MSTORE PUSH1 0x20 DUP2 ADD DUP5 DUP5 DUP5 ADD GT ISZERO PUSH2 0x32F JUMPI PUSH2 0x32E PUSH2 0x247 JUMP JUMPDEST JUMPDEST PUSH2 0x33A DUP5 DUP3 DUP6 PUSH2 0x2F3 JUMP JUMPDEST POP SWAP4 SWAP3 POP POP POP JUMP JUMPDEST PUSH0 DUP3 PUSH1 0x1F DUP4 ADD SLT PUSH2 0x356 JUMPI PUSH2 0x355 PUSH2 0x243 JUMP JUMPDEST JUMPDEST DUP2 CALLDATALOAD PUSH2 0x366 DUP5 DUP3 PUSH1 0x20 DUP7 ADD PUSH2 0x301 JUMP JUMPDEST SWAP2 POP POP SWAP3 SWAP2 POP POP JUMP JUMPDEST PUSH0 PUSH1 0x20 DUP3 DUP5 SUB SLT ISZERO PUSH2 0x384 JUMPI PUSH2 0x383 PUSH2 0x23B JUMP JUMPDEST JUMPDEST PUSH0 DUP3 ADD CALLDATALOAD PUSH8 0xFFFFFFFFFFFFFFFF DUP2 GT ISZERO PUSH2 0x3A1 JUMPI PUSH2 0x3A0 PUSH2 0x23F JUMP JUMPDEST JUMPDEST PUSH2 0x3AD DUP5 DUP3 DUP6 ADD PUSH2 0x342 JUMP JUMPDEST SWAP2 POP POP SWAP3 SWAP2 POP POP JUMP JUMPDEST PUSH32 0x4E487B7100000000000000000000000000000000000000000000000000000000 PUSH0 MSTORE PUSH1 0x22 PUSH1 0x4 MSTORE PUSH1 0x24 PUSH0 REVERT JUMPDEST PUSH0 PUSH1 0x2 DUP3 DIV SWAP1 POP PUSH1 0x1 DUP3 AND DUP1 PUSH2 0x3FA JUMPI PUSH1 0x7F DUP3 AND SWAP2 POP JUMPDEST PUSH1 0x20 DUP3 LT DUP2 SUB PUSH2 0x40D JUMPI PUSH2 0x40C PUSH2 0x3B6 JUMP JUMPDEST JUMPDEST POP SWAP2 SWAP1 POP JUMP JUMPDEST PUSH32 0x596F7520617265206E6F7420746865206F776E65720000000000000000000000 PUSH0 DUP3 ADD MSTORE POP JUMP JUMPDEST PUSH0 PUSH2 0x447 PUSH1 0x15 DUP4 PUSH2 0x1AC JUMP JUMPDEST SWAP2 POP PUSH2 0x452 DUP3 PUSH2 0x413 JUMP JUMPDEST PUSH1 0x20 DUP3 ADD SWAP1 POP SWAP2 SWAP1 POP JUMP JUMPDEST PUSH0 PUSH1 0x20 DUP3 ADD SWAP1 POP DUP2 DUP2 SUB PUSH0 DUP4 ADD MSTORE PUSH2 0x474 DUP2 PUSH2 0x43B JUMP JUMPDEST SWAP1 POP SWAP2 SWAP1 POP JUMP JUMPDEST PUSH0 DUP2 SWAP1 POP DUP2 PUSH0 MSTORE PUSH1 0x20 PUSH0 KECCAK256 SWAP1 POP SWAP2 SWAP1 POP JUMP JUMPDEST PUSH0 PUSH1 0x20 PUSH1 0x1F DUP4 ADD DIV SWAP1 POP SWAP2 SWAP1 POP JUMP JUMPDEST PUSH0 DUP3 DUP3 SHL SWAP1 POP SWAP3 SWAP2 POP POP JUMP JUMPDEST PUSH0 PUSH1 0x8 DUP4 MUL PUSH2 0x4D7 PUSH32 0xFFFFFFFFFFFFFFFFFFFFFFFFFFFFFFFFFFFFFFFFFFFFFFFFFFFFFFFFFFFFFFFF DUP3 PUSH2 0x49C JUMP JUMPDEST PUSH2 0x4E1 DUP7 DUP4 PUSH2 0x49C JUMP JUMPDEST SWAP6 POP DUP1 NOT DUP5 AND SWAP4 POP DUP1 DUP7 AND DUP5 OR SWAP3 POP POP POP SWAP4 SWAP3 POP POP POP JUMP JUMPDEST PUSH0 DUP2 SWAP1 POP SWAP2 SWAP1 POP JUMP JUMPDEST PUSH0 DUP2 SWAP1 POP SWAP2 SWAP1 POP JUMP JUMPDEST PUSH0 PUSH2 0x525 PUSH2 0x520 PUSH2 0x51B DUP5 PUSH2 0x4F9 JUMP JUMPDEST PUSH2 0x502 JUMP JUMPDEST PUSH2 0x4F9 JUMP JUMPDEST SWAP1 POP SWAP2 SWAP1 POP JUMP JUMPDEST PUSH0 DUP2 SWAP1 POP SWAP2 SWAP1 POP JUMP JUMPDEST PUSH2 0x53E DUP4 PUSH2 0x50B JUMP JUMPDEST PUSH2 0x552 PUSH2 0x54A DUP3 PUSH2 0x52C JUMP JUMPDEST DUP5 DUP5 SLOAD PUSH2 0x4A8 JUMP JUMPDEST DUP3 SSTORE POP POP POP POP JUMP JUMPDEST PUSH0 SWAP1 JUMP JUMPDEST PUSH2 0x566 PUSH2 0x55A JUMP JUMPDEST PUSH2 0x571 DUP2 DUP5 DUP5 PUSH2 0x535 JUMP JUMPDEST POP POP POP JUMP JUMPDEST JUMPDEST DUP2 DUP2 LT ISZERO PUSH2 0x594 JUMPI PUSH2 0x589 PUSH0 DUP3 PUSH2 0x55E JUMP JUMPDEST PUSH1 0x1 DUP2 ADD SWAP1 POP PUSH2 0x577 JUMP JUMPDEST POP POP JUMP JUMPDEST PUSH1 0x1F DUP3 GT ISZERO PUSH2 0x5D9 JUMPI PUSH2 0x5AA DUP2 PUSH2 0x47B JUMP JUMPDEST PUSH2 0x5B3 DUP5 PUSH2 0x48D JUMP JUMPDEST DUP2 ADD PUSH1 0x20 DUP6 LT ISZERO PUSH2 0x5C2 JUMPI DUP2 SWAP1 POP JUMPDEST PUSH2 0x5D6 PUSH2 0x5CE DUP6 PUSH2 0x48D JUMP JUMPDEST DUP4 ADD DUP3 PUSH2 0x576 JUMP JUMPDEST POP POP JUMPDEST POP POP POP JUMP JUMPDEST PUSH0 DUP3 DUP3 SHR SWAP1 POP SWAP3 SWAP2 POP POP JUMP JUMPDEST PUSH0 PUSH2 0x5F9 PUSH0 NOT DUP5 PUSH1 0x8 MUL PUSH2 0x5DE JUMP JUMPDEST NOT DUP1 DUP4 AND SWAP2 POP POP SWAP3 SWAP2 POP POP JUMP JUMPDEST PUSH0 PUSH2 0x611 DUP4 DUP4 PUSH2 0x5EA JUMP JUMPDEST SWAP2 POP DUP3 PUSH1 0x2 MUL DUP3 OR SWAP1 POP SWAP3 SWAP2 POP POP JUMP JUMPDEST PUSH2 0x62A DUP3 PUSH2 0x1A2 JUMP JUMPDEST PUSH8 0xFFFFFFFFFFFFFFFF DUP2 GT ISZERO PUSH2 0x643 JUMPI PUSH2 0x642 PUSH2 0x24B JUMP JUMPDEST JUMPDEST PUSH2 0x64D DUP3 SLOAD PUSH2 0x3E3 JUMP JUMPDEST PUSH2 0x658 DUP3 DUP3 DUP6 PUSH2 0x598 JUMP JUMPDEST PUSH0 PUSH1 0x20 SWAP1 POP PUSH1 0x1F DUP4 GT PUSH1 0x1 DUP2 EQ PUSH2 0x689 JUMPI PUSH0 DUP5 ISZERO PUSH2 0x677 JUMPI DUP3 DUP8 ADD MLOAD SWAP1 POP JUMPDEST PUSH2 0x681 DUP6 DUP3 PUSH2 0x606 JUMP JUMPDEST DUP7 SSTORE POP PUSH2 0x6E8 JUMP JUMPDEST PUSH1 0x1F NOT DUP5 AND PUSH2 0x697 DUP7 PUSH2 0x47B JUMP JUMPDEST PUSH0 JUMPDEST DUP3 DUP2 LT ISZERO PUSH2 0x6BE JUMPI DUP5 DUP10 ADD MLOAD DUP3 SSTORE PUSH1 0x1 DUP3 ADD SWAP2 POP PUSH1 0x20 DUP6 ADD SWAP5 POP PUSH1 0x20 DUP2 ADD SWAP1 POP PUSH2 0x699 JUMP JUMPDEST DUP7 DUP4 LT ISZERO PUSH2 0x6DB JUMPI DUP5 DUP10 ADD MLOAD PUSH2 0x6D7 PUSH1 0x1F DUP10 AND DUP3 PUSH2 0x5EA JUMP JUMPDEST DUP4 SSTORE POP JUMPDEST PUSH1 0x1 PUSH1 0x2 DUP9 MUL ADD DUP9 SSTORE POP POP POP JUMPDEST POP POP POP POP POP POP JUMP INVALID LOG2 PUSH5 0x6970667358 0x22 SLT KECCAK256 SGT 0xCE PREVRANDAO 0xB8 SMOD PREVRANDAO PUSH16 0x467E00A9BAAFAC3A483AD4F20FC9775D PUSH4 0x3E35533C DIV LOG0 SWAP5 JUMP PUSH5 0x736F6C6343 STOP ADDMOD NOT STOP CALLER "
				},
				"gasEstimates": {
					"creation": {
						"codeDepositCost": "366000",
						"executionCost": "infinite",
						"totalCost": "infinite"
					},
					"external": {
						"getName()": "infinite",
						"setName(string)": "infinite"
					}
				},
				"methodIdentifiers": {
					"getName()": "17d7de7c",
					"setName(string)": "c47f0027"
				}
			},
			"storageLayout": {
				"storage": [
					{
						"astId": 3,
						"contract": "contracts/SetterGetter.sol:SetterGetter",
						"label": "name",
						"offset": 0,
						"slot": "0",
						"type": "t_string_storage"
					},
					{
						"astId": 5,
						"contract": "contracts/SetterGetter.sol:SetterGetter",
						"label": "owner",
						"offset": 0,
						"slot": "1",
						"type": "t_address"
					}
				],
				"types": {
					"t_address": {
						"encoding": "inplace",
						"label": "address",
						"numberOfBytes": "20"
					},
					"t_string_storage": {
						"encoding": "bytes",
						"label": "string",
						"numberOfBytes": "32"
					}
				}
			},
			"userdoc": {
				"kind": "user",
				"methods": {},
				"version": 1
			}
		}
	}
}